{
  "contractName": "Verifications",
  "abi": [
    {
      "constant": true,
      "inputs": [
        {
          "name": "hash",
          "type": "bytes32"
        },
        {
          "name": "signature",
          "type": "bytes"
        }
      ],
      "name": "recover",
      "outputs": [
        {
          "name": "",
          "type": "address"
        }
      ],
      "payable": false,
      "stateMutability": "pure",
      "type": "function"
    }
  ],
  "bytecode": "0x608060405234801561001057600080fd5b50610243806100206000396000f3fe608060405234801561001057600080fd5b506004361061002b5760003560e01c806319045a2514610030575b600080fd5b6100f36004803603604081101561004657600080fd5b81019080803590602001909291908035906020019064010000000081111561006d57600080fd5b82018360208201111561007f57600080fd5b803590602001918460018302840111640100000000831117156100a157600080fd5b91908080601f016020809104026020016040519081016040528093929190818152602001838380828437600081840152601f19601f820116905080830192505050505050509192919290505050610135565b604051808273ffffffffffffffffffffffffffffffffffffffff1673ffffffffffffffffffffffffffffffffffffffff16815260200191505060405180910390f35b60008060008060418551146101505760009350505050610211565b6020850151925060408501519150606085015160001a9050601b8160ff16101561017b57601b810190505b601b8160ff16141580156101935750601c8160ff1614155b156101a45760009350505050610211565b60018682858560405160008152602001604052604051808581526020018460ff1660ff1681526020018381526020018281526020019450505050506020604051602081039080840390855afa158015610201573d6000803e3d6000fd5b5050506020604051035193505050505b9291505056fea165627a7a72305820eb8b77a739098a5346ef6b987dc31ad11177be37e70f95ae73d2f8fb23d6ba7f0029",
  "source": "pragma solidity ^0.5.8;\n\ncontract Verifications {\n\n  function recover(bytes32 hash, bytes memory signature)\n  public\n  pure\n  returns (address)\n  {\n    bytes32 r;\n    bytes32 s;\n    uint8 v;\n\n    if(signature.length != 65) {\n      return (address(0));\n    }\n\n    assembly {\n      r := mload(add(signature, 0x20))\n      s := mload(add(signature, 0x40))\n      v := byte(0, mload(add(signature, 0x60)))\n    }\n\n    if(v < 27) {\n      v += 27;\n    }\n\n    if(v != 27 && v != 28) {\n      return (address(0));\n    } else {\n      return ecrecover(hash, v, r, s);\n    }\n\n  }\n\n}\n",
  "sourcePath": "/Users/rachel/GH/SR/Stackathon/contracts/Verifications.sol",
  "compiler": {
    "name": "solc",
    "version": "0.5.8+commit.23d335f2.Emscripten.clang"
  },
  "schemaVersion": "3.0.11",
  "updatedAt": "2019-06-24T00:49:14.976Z",
  "devdoc": {
    "methods": {}
  },
  "userdoc": {
    "methods": {}
  }
}